{
  "contractName": "KOKU",
  "abi": [
    {
      "inputs": [
        {
          "internalType": "address",
          "name": "_owner",
          "type": "address"
        }
      ],
      "stateMutability": "nonpayable",
      "type": "constructor"
    },
    {
      "anonymous": false,
      "inputs": [
        {
          "indexed": false,
          "internalType": "address",
          "name": "_address",
          "type": "address"
        }
      ],
      "name": "AddToWhiteList",
      "type": "event"
    },
    {
      "anonymous": false,
      "inputs": [
        {
          "indexed": true,
          "internalType": "address",
          "name": "owner",
          "type": "address"
        },
        {
          "indexed": true,
          "internalType": "address",
          "name": "spender",
          "type": "address"
        },
        {
          "indexed": false,
          "internalType": "uint256",
          "name": "value",
          "type": "uint256"
        }
      ],
      "name": "Approval",
      "type": "event"
    },
    {
      "anonymous": false,
      "inputs": [
        {
          "indexed": false,
          "internalType": "address",
          "name": "_address",
          "type": "address"
        }
      ],
      "name": "OwnershipTransfer",
      "type": "event"
    },
    {
      "anonymous": false,
      "inputs": [],
      "name": "Pause",
      "type": "event"
    },
    {
      "anonymous": false,
      "inputs": [
        {
          "indexed": false,
          "internalType": "address",
          "name": "_address",
          "type": "address"
        }
      ],
      "name": "RemovedFromWhiteList",
      "type": "event"
    },
    {
      "anonymous": false,
      "inputs": [
        {
          "indexed": true,
          "internalType": "address",
          "name": "from",
          "type": "address"
        },
        {
          "indexed": true,
          "internalType": "address",
          "name": "to",
          "type": "address"
        },
        {
          "indexed": false,
          "internalType": "uint256",
          "name": "value",
          "type": "uint256"
        }
      ],
      "name": "Transfer",
      "type": "event"
    },
    {
      "anonymous": false,
      "inputs": [],
      "name": "Unpause",
      "type": "event"
    },
    {
      "inputs": [],
      "name": "decimals",
      "outputs": [
        {
          "internalType": "uint256",
          "name": "",
          "type": "uint256"
        }
      ],
      "stateMutability": "view",
      "type": "function",
      "constant": true
    },
    {
      "inputs": [
        {
          "internalType": "address",
          "name": "",
          "type": "address"
        }
      ],
      "name": "isWhiteListed",
      "outputs": [
        {
          "internalType": "bool",
          "name": "",
          "type": "bool"
        }
      ],
      "stateMutability": "view",
      "type": "function",
      "constant": true
    },
    {
      "inputs": [],
      "name": "name",
      "outputs": [
        {
          "internalType": "string",
          "name": "",
          "type": "string"
        }
      ],
      "stateMutability": "view",
      "type": "function",
      "constant": true
    },
    {
      "inputs": [],
      "name": "owner",
      "outputs": [
        {
          "internalType": "address",
          "name": "",
          "type": "address"
        }
      ],
      "stateMutability": "view",
      "type": "function",
      "constant": true
    },
    {
      "inputs": [],
      "name": "pause",
      "outputs": [],
      "stateMutability": "nonpayable",
      "type": "function"
    },
    {
      "inputs": [],
      "name": "paused",
      "outputs": [
        {
          "internalType": "bool",
          "name": "",
          "type": "bool"
        }
      ],
      "stateMutability": "view",
      "type": "function",
      "constant": true
    },
    {
      "inputs": [],
      "name": "supply",
      "outputs": [
        {
          "internalType": "uint256",
          "name": "",
          "type": "uint256"
        }
      ],
      "stateMutability": "view",
      "type": "function",
      "constant": true
    },
    {
      "inputs": [],
      "name": "symbol",
      "outputs": [
        {
          "internalType": "string",
          "name": "",
          "type": "string"
        }
      ],
      "stateMutability": "view",
      "type": "function",
      "constant": true
    },
    {
      "inputs": [],
      "name": "unpause",
      "outputs": [],
      "stateMutability": "nonpayable",
      "type": "function"
    },
    {
      "inputs": [],
      "name": "totalSupply",
      "outputs": [
        {
          "internalType": "uint256",
          "name": "",
          "type": "uint256"
        }
      ],
      "stateMutability": "pure",
      "type": "function",
      "constant": true
    },
    {
      "inputs": [
        {
          "internalType": "address",
          "name": "tokenOwner",
          "type": "address"
        }
      ],
      "name": "balanceOf",
      "outputs": [
        {
          "internalType": "uint256",
          "name": "",
          "type": "uint256"
        }
      ],
      "stateMutability": "view",
      "type": "function",
      "constant": true
    },
    {
      "inputs": [
        {
          "internalType": "address",
          "name": "receiver",
          "type": "address"
        },
        {
          "internalType": "uint256",
          "name": "numTokens",
          "type": "uint256"
        }
      ],
      "name": "transfer",
      "outputs": [
        {
          "internalType": "bool",
          "name": "",
          "type": "bool"
        }
      ],
      "stateMutability": "nonpayable",
      "type": "function"
    },
    {
      "inputs": [
        {
          "internalType": "address",
          "name": "sender",
          "type": "address"
        },
        {
          "internalType": "address",
          "name": "receiver",
          "type": "address"
        },
        {
          "internalType": "uint256",
          "name": "numTokens",
          "type": "uint256"
        }
      ],
      "name": "transferFrom",
      "outputs": [
        {
          "internalType": "bool",
          "name": "",
          "type": "bool"
        }
      ],
      "stateMutability": "nonpayable",
      "type": "function"
    },
    {
      "inputs": [
        {
          "internalType": "address",
          "name": "spender",
          "type": "address"
        },
        {
          "internalType": "uint256",
          "name": "numTokens",
          "type": "uint256"
        }
      ],
      "name": "approve",
      "outputs": [
        {
          "internalType": "bool",
          "name": "",
          "type": "bool"
        }
      ],
      "stateMutability": "nonpayable",
      "type": "function"
    },
    {
      "inputs": [
        {
          "internalType": "address",
          "name": "owner",
          "type": "address"
        },
        {
          "internalType": "address",
          "name": "spender",
          "type": "address"
        }
      ],
      "name": "allowance",
      "outputs": [
        {
          "internalType": "uint256",
          "name": "",
          "type": "uint256"
        }
      ],
      "stateMutability": "view",
      "type": "function",
      "constant": true
    },
    {
      "inputs": [
        {
          "internalType": "address",
          "name": "_address",
          "type": "address"
        }
      ],
      "name": "getWhiteListStatus",
      "outputs": [
        {
          "internalType": "bool",
          "name": "",
          "type": "bool"
        }
      ],
      "stateMutability": "view",
      "type": "function",
      "constant": true
    },
    {
      "inputs": [
        {
          "internalType": "address",
          "name": "_address",
          "type": "address"
        }
      ],
      "name": "whiteListAddress",
      "outputs": [],
      "stateMutability": "nonpayable",
      "type": "function"
    },
    {
      "inputs": [
        {
          "internalType": "address",
          "name": "_address",
          "type": "address"
        }
      ],
      "name": "removeWhiteListAddress",
      "outputs": [],
      "stateMutability": "nonpayable",
      "type": "function"
    },
    {
      "inputs": [
        {
          "internalType": "address",
          "name": "tokenAddress",
          "type": "address"
        },
        {
          "internalType": "address",
          "name": "to",
          "type": "address"
        },
        {
          "internalType": "uint256",
          "name": "amount",
          "type": "uint256"
        }
      ],
      "name": "transferTokens",
      "outputs": [],
      "stateMutability": "nonpayable",
      "type": "function"
    },
    {
      "inputs": [
        {
          "internalType": "address",
          "name": "newOwner",
          "type": "address"
        }
      ],
      "name": "transferOwnership",
      "outputs": [],
      "stateMutability": "nonpayable",
      "type": "function"
    }
  ],
  "bytecode": "0x608060405260008060146101000a81548160ff0219169083151502179055503480156200002b57600080fd5b506040516200212c3803806200212c833981810160405281019062000051919062000207565b806000806101000a81548173ffffffffffffffffffffffffffffffffffffffff021916908373ffffffffffffffffffffffffffffffffffffffff1602179055506b033b2e3c9fd0803ce8000000600160008060009054906101000a900473ffffffffffffffffffffffffffffffffffffffff1673ffffffffffffffffffffffffffffffffffffffff1673ffffffffffffffffffffffffffffffffffffffff1681526020019081526020016000208190555060008054906101000a900473ffffffffffffffffffffffffffffffffffffffff1673ffffffffffffffffffffffffffffffffffffffff16600073ffffffffffffffffffffffffffffffffffffffff167fddf252ad1be2c89b69c2b068fc378daa952ba7f163c4a11628f55a4df523b3ef6b033b2e3c9fd0803ce80000006040516200018e919062000254565b60405180910390a35062000271565b600080fd5b600073ffffffffffffffffffffffffffffffffffffffff82169050919050565b6000620001cf82620001a2565b9050919050565b620001e181620001c2565b8114620001ed57600080fd5b50565b6000815190506200020181620001d6565b92915050565b60006020828403121562000220576200021f6200019d565b5b60006200023084828501620001f0565b91505092915050565b6000819050919050565b6200024e8162000239565b82525050565b60006020820190506200026b600083018462000243565b92915050565b611eab80620002816000396000f3fe608060405234801561001057600080fd5b506004361061012c5760003560e01c806370a08231116100ad578063a9059cbb11610071578063a9059cbb14610323578063ce114c2514610353578063cf52a7b21461036f578063dd62ed3e1461038b578063f2fde38b146103bb5761012c565b806370a08231146102915780638456cb59146102c15780638da5cb5b146102cb57806395d89b41146102e9578063a64b6e5f146103075761012c565b8063313ce567116100f4578063313ce567146101eb5780633f4ba83a146102095780635c975abb14610213578063669b8f20146102315780636f9170f6146102615761012c565b8063047fc9aa1461013157806306fdde031461014f578063095ea7b31461016d57806318160ddd1461019d57806323b872dd146101bb575b600080fd5b6101396103d7565b6040516101469190611683565b60405180910390f35b6101576103e7565b6040516101649190611737565b60405180910390f35b610187600480360381019061018291906117e8565b610420565b6040516101949190611843565b60405180910390f35b6101a5610580565b6040516101b29190611683565b60405180910390f35b6101d560048036038101906101d0919061185e565b610594565b6040516101e29190611843565b60405180910390f35b6101f3610a7b565b6040516102009190611683565b60405180910390f35b610211610a80565b005b61021b610ba5565b6040516102289190611843565b60405180910390f35b61024b600480360381019061024691906118b1565b610bb8565b6040516102589190611843565b60405180910390f35b61027b600480360381019061027691906118b1565b610c0e565b6040516102889190611843565b60405180910390f35b6102ab60048036038101906102a691906118b1565b610c2e565b6040516102b89190611683565b60405180910390f35b6102c9610c77565b005b6102d3610d9e565b6040516102e091906118ed565b60405180910390f35b6102f1610dc2565b6040516102fe9190611737565b60405180910390f35b610321600480360381019061031c919061185e565b610dfb565b005b61033d600480360381019061033891906117e8565b610f0d565b60405161034a9190611843565b60405180910390f35b61036d600480360381019061036891906118b1565b61122c565b005b610389600480360381019061038491906118b1565b61134c565b005b6103a560048036038101906103a09190611908565b61146c565b6040516103b29190611683565b60405180910390f35b6103d560048036038101906103d091906118b1565b6114f3565b005b6b033b2e3c9fd0803ce800000081565b6040518060400160405280600481526020017f4b4f4b550000000000000000000000000000000000000000000000000000000081525081565b60008073ffffffffffffffffffffffffffffffffffffffff168373ffffffffffffffffffffffffffffffffffffffff1603610490576040517f08c379a000000000000000000000000000000000000000000000000000000000815260040161048790611994565b60405180910390fd5b81600260003373ffffffffffffffffffffffffffffffffffffffff1673ffffffffffffffffffffffffffffffffffffffff16815260200190815260200160002060008573ffffffffffffffffffffffffffffffffffffffff1673ffffffffffffffffffffffffffffffffffffffff168152602001908152602001600020819055508273ffffffffffffffffffffffffffffffffffffffff163373ffffffffffffffffffffffffffffffffffffffff167f8c5be1e5ebec7d5bd14f71427d1e84f3dd0314c0f7b2291e5b200ac8c7c3b9258460405161056e9190611683565b60405180910390a36001905092915050565b60006b033b2e3c9fd0803ce8000000905090565b60008073ffffffffffffffffffffffffffffffffffffffff168373ffffffffffffffffffffffffffffffffffffffff1603610604576040517f08c379a00000000000000000000000000000000000000000000000000000000081526004016105fb90611a00565b60405180910390fd5b600160008573ffffffffffffffffffffffffffffffffffffffff1673ffffffffffffffffffffffffffffffffffffffff16815260200190815260200160002054821115610686576040517f08c379a000000000000000000000000000000000000000000000000000000000815260040161067d90611a6c565b60405180910390fd5b600260008573ffffffffffffffffffffffffffffffffffffffff1673ffffffffffffffffffffffffffffffffffffffff16815260200190815260200160002060003373ffffffffffffffffffffffffffffffffffffffff1673ffffffffffffffffffffffffffffffffffffffff16815260200190815260200160002054821115610745576040517f08c379a000000000000000000000000000000000000000000000000000000000815260040161073c90611afe565b60405180910390fd5b600060149054906101000a900460ff16156107e757600360008573ffffffffffffffffffffffffffffffffffffffff1673ffffffffffffffffffffffffffffffffffffffff16815260200190815260200160002060009054906101000a900460ff166107e6576040517f08c379a00000000000000000000000000000000000000000000000000000000081526004016107dd90611b6a565b60405180910390fd5b5b81600160008673ffffffffffffffffffffffffffffffffffffffff1673ffffffffffffffffffffffffffffffffffffffff168152602001908152602001600020546108329190611bb9565b600160008673ffffffffffffffffffffffffffffffffffffffff1673ffffffffffffffffffffffffffffffffffffffff1681526020019081526020016000208190555081600260008673ffffffffffffffffffffffffffffffffffffffff1673ffffffffffffffffffffffffffffffffffffffff16815260200190815260200160002060003373ffffffffffffffffffffffffffffffffffffffff1673ffffffffffffffffffffffffffffffffffffffff168152602001908152602001600020546108fd9190611bb9565b600260008673ffffffffffffffffffffffffffffffffffffffff1673ffffffffffffffffffffffffffffffffffffffff16815260200190815260200160002060003373ffffffffffffffffffffffffffffffffffffffff1673ffffffffffffffffffffffffffffffffffffffff1681526020019081526020016000208190555081600160008573ffffffffffffffffffffffffffffffffffffffff1673ffffffffffffffffffffffffffffffffffffffff168152602001908152602001600020546109c89190611bed565b600160008573ffffffffffffffffffffffffffffffffffffffff1673ffffffffffffffffffffffffffffffffffffffff168152602001908152602001600020819055508273ffffffffffffffffffffffffffffffffffffffff168473ffffffffffffffffffffffffffffffffffffffff167fddf252ad1be2c89b69c2b068fc378daa952ba7f163c4a11628f55a4df523b3ef84604051610a689190611683565b60405180910390a3600190509392505050565b601281565b60008054906101000a900473ffffffffffffffffffffffffffffffffffffffff1673ffffffffffffffffffffffffffffffffffffffff163373ffffffffffffffffffffffffffffffffffffffff1614610b0e576040517f08c379a0000000000000000000000000000000000000000000000000000000008152600401610b0590611c8f565b60405180910390fd5b600060149054906101000a900460ff16610b5d576040517f08c379a0000000000000000000000000000000000000000000000000000000008152600401610b5490611cfb565b60405180910390fd5b60008060146101000a81548160ff0219169083151502179055507f7805862f689e2f13df9f062ff482ad3ad112aca9e0847911ed832e158c525b3360405160405180910390a1565b600060149054906101000a900460ff1681565b6000600360008373ffffffffffffffffffffffffffffffffffffffff1673ffffffffffffffffffffffffffffffffffffffff16815260200190815260200160002060009054906101000a900460ff169050919050565b60036020528060005260406000206000915054906101000a900460ff1681565b6000600160008373ffffffffffffffffffffffffffffffffffffffff1673ffffffffffffffffffffffffffffffffffffffff168152602001908152602001600020549050919050565b60008054906101000a900473ffffffffffffffffffffffffffffffffffffffff1673ffffffffffffffffffffffffffffffffffffffff163373ffffffffffffffffffffffffffffffffffffffff1614610d05576040517f08c379a0000000000000000000000000000000000000000000000000000000008152600401610cfc90611c8f565b60405180910390fd5b600060149054906101000a900460ff1615610d55576040517f08c379a0000000000000000000000000000000000000000000000000000000008152600401610d4c90611d67565b60405180910390fd5b6001600060146101000a81548160ff0219169083151502179055507f6985a02210a168e66602d3235cb6db0e70f92b3ba4d376a33c0f3d9434bff62560405160405180910390a1565b60008054906101000a900473ffffffffffffffffffffffffffffffffffffffff1681565b6040518060400160405280600481526020017f4b4f4b550000000000000000000000000000000000000000000000000000000081525081565b60008054906101000a900473ffffffffffffffffffffffffffffffffffffffff1673ffffffffffffffffffffffffffffffffffffffff163373ffffffffffffffffffffffffffffffffffffffff1614610e89576040517f08c379a0000000000000000000000000000000000000000000000000000000008152600401610e8090611c8f565b60405180910390fd5b8273ffffffffffffffffffffffffffffffffffffffff1663a9059cbb83836040518363ffffffff1660e01b8152600401610ec4929190611d87565b6020604051808303816000875af1158015610ee3573d6000803e3d6000fd5b505050506040513d601f19601f82011682018060405250810190610f079190611ddc565b50505050565b60008073ffffffffffffffffffffffffffffffffffffffff168373ffffffffffffffffffffffffffffffffffffffff1603610f7d576040517f08c379a0000000000000000000000000000000000000000000000000000000008152600401610f7490611a00565b60405180910390fd5b600160003373ffffffffffffffffffffffffffffffffffffffff1673ffffffffffffffffffffffffffffffffffffffff16815260200190815260200160002054821115610fff576040517f08c379a0000000000000000000000000000000000000000000000000000000008152600401610ff690611a6c565b60405180910390fd5b600060149054906101000a900460ff16156110a157600360003373ffffffffffffffffffffffffffffffffffffffff1673ffffffffffffffffffffffffffffffffffffffff16815260200190815260200160002060009054906101000a900460ff166110a0576040517f08c379a000000000000000000000000000000000000000000000000000000000815260040161109790611b6a565b60405180910390fd5b5b81600160003373ffffffffffffffffffffffffffffffffffffffff1673ffffffffffffffffffffffffffffffffffffffff168152602001908152602001600020546110ec9190611bb9565b600160003373ffffffffffffffffffffffffffffffffffffffff1673ffffffffffffffffffffffffffffffffffffffff1681526020019081526020016000208190555081600160008573ffffffffffffffffffffffffffffffffffffffff1673ffffffffffffffffffffffffffffffffffffffff1681526020019081526020016000205461117a9190611bed565b600160008573ffffffffffffffffffffffffffffffffffffffff1673ffffffffffffffffffffffffffffffffffffffff168152602001908152602001600020819055508273ffffffffffffffffffffffffffffffffffffffff163373ffffffffffffffffffffffffffffffffffffffff167fddf252ad1be2c89b69c2b068fc378daa952ba7f163c4a11628f55a4df523b3ef8460405161121a9190611683565b60405180910390a36001905092915050565b60008054906101000a900473ffffffffffffffffffffffffffffffffffffffff1673ffffffffffffffffffffffffffffffffffffffff163373ffffffffffffffffffffffffffffffffffffffff16146112ba576040517f08c379a00000000000000000000000000000000000000000000000000000000081526004016112b190611c8f565b60405180910390fd5b6000600360008373ffffffffffffffffffffffffffffffffffffffff1673ffffffffffffffffffffffffffffffffffffffff16815260200190815260200160002060006101000a81548160ff0219169083151502179055507f9354cd337eebad48c93d70f7321b188732c3061fa5c48fe32b8e6f9480c52fcc8160405161134191906118ed565b60405180910390a150565b60008054906101000a900473ffffffffffffffffffffffffffffffffffffffff1673ffffffffffffffffffffffffffffffffffffffff163373ffffffffffffffffffffffffffffffffffffffff16146113da576040517f08c379a00000000000000000000000000000000000000000000000000000000081526004016113d190611c8f565b60405180910390fd5b6001600360008373ffffffffffffffffffffffffffffffffffffffff1673ffffffffffffffffffffffffffffffffffffffff16815260200190815260200160002060006101000a81548160ff0219169083151502179055507f16220188fd357ae3d9cf432f984d1ea5c73787b829a3e72a4b807e8c0ebf5b0c8160405161146191906118ed565b60405180910390a150565b6000600260008473ffffffffffffffffffffffffffffffffffffffff1673ffffffffffffffffffffffffffffffffffffffff16815260200190815260200160002060008373ffffffffffffffffffffffffffffffffffffffff1673ffffffffffffffffffffffffffffffffffffffff16815260200190815260200160002054905092915050565b60008054906101000a900473ffffffffffffffffffffffffffffffffffffffff1673ffffffffffffffffffffffffffffffffffffffff163373ffffffffffffffffffffffffffffffffffffffff1614611581576040517f08c379a000000000000000000000000000000000000000000000000000000000815260040161157890611c8f565b60405180910390fd5b600073ffffffffffffffffffffffffffffffffffffffff168173ffffffffffffffffffffffffffffffffffffffff16036115f0576040517f08c379a00000000000000000000000000000000000000000000000000000000081526004016115e790611e55565b60405180910390fd5b806000806101000a81548173ffffffffffffffffffffffffffffffffffffffff021916908373ffffffffffffffffffffffffffffffffffffffff1602179055507fdfc39691aec87dc6aa51ff70c0e592f260c54d2ed6c64e8c4c2306da0eec872b8160405161165f91906118ed565b60405180910390a150565b6000819050919050565b61167d8161166a565b82525050565b60006020820190506116986000830184611674565b92915050565b600081519050919050565b600082825260208201905092915050565b60005b838110156116d85780820151818401526020810190506116bd565b838111156116e7576000848401525b50505050565b6000601f19601f8301169050919050565b60006117098261169e565b61171381856116a9565b93506117238185602086016116ba565b61172c816116ed565b840191505092915050565b6000602082019050818103600083015261175181846116fe565b905092915050565b600080fd5b600073ffffffffffffffffffffffffffffffffffffffff82169050919050565b60006117898261175e565b9050919050565b6117998161177e565b81146117a457600080fd5b50565b6000813590506117b681611790565b92915050565b6117c58161166a565b81146117d057600080fd5b50565b6000813590506117e2816117bc565b92915050565b600080604083850312156117ff576117fe611759565b5b600061180d858286016117a7565b925050602061181e858286016117d3565b9150509250929050565b60008115159050919050565b61183d81611828565b82525050565b60006020820190506118586000830184611834565b92915050565b60008060006060848603121561187757611876611759565b5b6000611885868287016117a7565b9350506020611896868287016117a7565b92505060406118a7868287016117d3565b9150509250925092565b6000602082840312156118c7576118c6611759565b5b60006118d5848285016117a7565b91505092915050565b6118e78161177e565b82525050565b600060208201905061190260008301846118de565b92915050565b6000806040838503121561191f5761191e611759565b5b600061192d858286016117a7565b925050602061193e858286016117a7565b9150509250929050565b7f7370656e64657220697320746865207a65726f20616464726573730000000000600082015250565b600061197e601b836116a9565b915061198982611948565b602082019050919050565b600060208201905081810360008301526119ad81611971565b9050919050565b7f7472616e7366657220746f20746865207a65726f2d6164647265737300000000600082015250565b60006119ea601c836116a9565b91506119f5826119b4565b602082019050919050565b60006020820190508181036000830152611a19816119dd565b9050919050565b7f7472616e7366657220616d6f756e7420657863656564732062616c616e636500600082015250565b6000611a56601f836116a9565b9150611a6182611a20565b602082019050919050565b60006020820190508181036000830152611a8581611a49565b9050919050565b7f7472616e7366657220616d6f756e74206578636565647320616c6c6f7765642060008201527f616d6f756e740000000000000000000000000000000000000000000000000000602082015250565b6000611ae86026836116a9565b9150611af382611a8c565b604082019050919050565b60006020820190508181036000830152611b1781611adb565b9050919050565b7f73656e646572206e6f742077686974656c69737420746f207472616e73666572600082015250565b6000611b546020836116a9565b9150611b5f82611b1e565b602082019050919050565b60006020820190508181036000830152611b8381611b47565b9050919050565b7f4e487b7100000000000000000000000000000000000000000000000000000000600052601160045260246000fd5b6000611bc48261166a565b9150611bcf8361166a565b925082821015611be257611be1611b8a565b5b828203905092915050565b6000611bf88261166a565b9150611c038361166a565b9250827fffffffffffffffffffffffffffffffffffffffffffffffffffffffffffffffff03821115611c3857611c37611b8a565b5b828201905092915050565b7f4f6e6c79206f776e65722063616c6c20746869732066756e6374696f6e000000600082015250565b6000611c79601d836116a9565b9150611c8482611c43565b602082019050919050565b60006020820190508181036000830152611ca881611c6c565b9050919050565b7f436f6e7472616374206973206e6f7420706175736564207269676874206e6f77600082015250565b6000611ce56020836116a9565b9150611cf082611caf565b602082019050919050565b60006020820190508181036000830152611d1481611cd8565b9050919050565b7f436f6e747261637420697320706175736564207269676874206e6f7700000000600082015250565b6000611d51601c836116a9565b9150611d5c82611d1b565b602082019050919050565b60006020820190508181036000830152611d8081611d44565b9050919050565b6000604082019050611d9c60008301856118de565b611da96020830184611674565b9392505050565b611db981611828565b8114611dc457600080fd5b50565b600081519050611dd681611db0565b92915050565b600060208284031215611df257611df1611759565b5b6000611e0084828501611dc7565b91505092915050565b7f4e6577206f776e65722063616e2774206265207a65726f2d6164647265737300600082015250565b6000611e3f601f836116a9565b9150611e4a82611e09565b602082019050919050565b60006020820190508181036000830152611e6e81611e32565b905091905056fea264697066735822122064aaf70a4d6ecd83732acc3294c4a8fe4b1736338c2486b57bd133113093745564736f6c634300080e0033",
  "immutableReferences": {},
  "source": "/**\r\n *Submitted for verification at Etherscan.io on 2022-04-30\r\n*/\r\n\r\n// SPDX-License-Identifier: Unlicensed\r\n\r\npragma solidity ^0.8.0;\r\n\r\ncontract Ownable {\r\n    address public owner;\r\n\r\n    modifier onlyOwner() {\r\n        require(msg.sender == owner, \"Only owner call this function\");\r\n        _;\r\n    }\r\n}\r\n\r\ncontract Pausable is Ownable {\r\n    event Pause();\r\n    event Unpause();\r\n\r\n    bool public paused = false;\r\n\r\n    modifier whenNotPaused() {\r\n        require(!paused, \"Contract is paused right now\");\r\n        _;\r\n    }\r\n\r\n    modifier whenPaused() {\r\n        require(paused, \"Contract is not paused right now\");\r\n        _;\r\n    }\r\n\r\n    function pause() onlyOwner whenNotPaused public {\r\n        paused = true;\r\n        emit Pause();\r\n    }\r\n\r\n    function unpause() onlyOwner whenPaused public {\r\n        paused = false;\r\n        emit Unpause();\r\n    }\r\n}\r\n\r\ninterface IERC20 {\r\n    function totalSupply() external view returns (uint256);\r\n    function balanceOf(address account) external view returns (uint256);\r\n    function allowance(address owner, address spender) external view returns (uint256);\r\n\r\n    function transfer(address recipient, uint256 amount) external returns (bool);\r\n    function approve(address spender, uint256 amount) external returns (bool);\r\n    function transferFrom(address sender, address recipient, uint256 amount) external returns (bool);\r\n\r\n    event Transfer(address indexed from, address indexed to, uint256 value);\r\n    event Approval(address indexed owner, address indexed spender, uint256 value);\r\n\r\n    event AddToWhiteList(address _address);\r\n    event RemovedFromWhiteList(address _address);\r\n    event OwnershipTransfer(address _address);\r\n}\r\n\r\ncontract KOKU is IERC20, Pausable {\r\n    string public constant name = \"KOKU\";\r\n    string public constant symbol = \"KOKU\";\r\n    uint256 public constant decimals = 18;\r\n    uint256 public constant supply = 1000000000 * (10**18);\r\n\r\n    mapping (address => uint256) balances;\r\n    mapping (address => mapping (address => uint256)) allowed;\r\n    mapping (address => bool) public isWhiteListed;\r\n\r\n    constructor(address _owner){\r\n        owner = _owner;\r\n        balances[owner] = supply;\r\n        emit Transfer(address(0), owner, supply);\r\n    }\r\n\r\n    function totalSupply() public override pure returns (uint256) {\r\n        return supply;\r\n    }\r\n\r\n    function balanceOf(address tokenOwner) public override view returns (uint256) {\r\n        return balances[tokenOwner];\r\n    }\r\n\r\n    function transfer(address receiver, uint256 numTokens) public override returns (bool) {\r\n        require(\r\n            receiver != address(0),\r\n            \"transfer to the zero-address\"\r\n        );\r\n        require(\r\n            numTokens <= balances[msg.sender],\r\n            \"transfer amount exceeds balance\"\r\n        );\r\n        if(paused)\r\n        {\r\n            require(\r\n                isWhiteListed[msg.sender],\r\n                \"sender not whitelist to transfer\"\r\n            );\r\n        }\r\n        balances[msg.sender] = balances[msg.sender] - numTokens;\r\n        balances[receiver] = balances[receiver] + numTokens;\r\n        emit Transfer(msg.sender, receiver, numTokens);\r\n        return true;\r\n    }\r\n\r\n    function transferFrom(address sender, address receiver, uint256 numTokens) public override returns (bool) {\r\n        require(\r\n            receiver != address(0),\r\n            \"transfer to the zero-address\"\r\n        );\r\n        require(\r\n            numTokens <= balances[sender],\r\n            \"transfer amount exceeds balance\"\r\n        );\r\n        require(\r\n            numTokens <= allowed[sender][msg.sender],\r\n            \"transfer amount exceeds allowed amount\"\r\n        );\r\n        if(paused)\r\n        {\r\n            require(\r\n                isWhiteListed[sender],\r\n                \"sender not whitelist to transfer\"\r\n            );\r\n        }\r\n\r\n        balances[sender] = balances[sender] - numTokens;\r\n        allowed[sender][msg.sender] = allowed[sender][msg.sender] - numTokens;\r\n        balances[receiver] = balances[receiver] + numTokens;\r\n\r\n        emit Transfer(sender, receiver, numTokens);\r\n        return true;\r\n    }\r\n\r\n    function approve(address spender, uint256 numTokens) public override returns (bool) {\r\n        require(\r\n            spender != address(0),\r\n            \"spender is the zero address\"\r\n        );\r\n        allowed[msg.sender][spender] = numTokens;\r\n        emit Approval(msg.sender, spender, numTokens);\r\n        return true;\r\n    }\r\n\r\n    function allowance(address owner, address spender) public override view returns (uint) {\r\n        return allowed[owner][spender];\r\n    }\r\n\r\n    function getWhiteListStatus(address _address) external view returns (bool) {\r\n        return isWhiteListed[_address];\r\n    }\r\n\r\n    function whiteListAddress(address _address) external onlyOwner{\r\n        isWhiteListed[_address] = true;\r\n        emit AddToWhiteList(_address);\r\n    }\r\n\r\n    function removeWhiteListAddress (address _address) external onlyOwner{\r\n        isWhiteListed[_address] = false;\r\n        emit RemovedFromWhiteList(_address);\r\n    }\r\n\r\n    function transferTokens(address tokenAddress, address to, uint256 amount) external onlyOwner {\r\n        IERC20(tokenAddress).transfer(to, amount);\r\n    }\r\n\r\n    function transferOwnership(address newOwner) public onlyOwner {\r\n        require(newOwner != address(0), \"New owner can't be zero-address\");\r\n        owner = newOwner;\r\n        emit OwnershipTransfer(newOwner);\r\n    }\r\n}",
  "sourcePath": "C:\\Users\\retyn\\Documents\\rust_projects\\contracts\\KOKU.sol",
  "compiler": {
    "name": "solc",
    "version": "0.8.14+commit.80d49f37.Emscripten.clang"
  },
  "schemaVersion": "3.4.7",
  "updatedAt": "2022-06-05T07:00:17.669Z",
  "networkType": "ethereum",
  "devdoc": {
    "kind": "dev",
    "methods": {},
    "version": 1
  },
  "userdoc": {
    "kind": "user",
    "methods": {},
    "version": 1
  }
}