{
  "contractName": "Ownable",
  "abi": [
    {
      "inputs": [],
      "name": "owner",
      "outputs": [
        {
          "internalType": "address",
          "name": "",
          "type": "address"
        }
      ],
      "stateMutability": "view",
      "type": "function"
    }
  ],
  "bytecode": "0x608060405234801561001057600080fd5b5060f78061001f6000396000f3fe6080604052348015600f57600080fd5b506004361060285760003560e01c80638da5cb5b14602d575b600080fd5b60336047565b604051603e919060a8565b60405180910390f35b60008054906101000a900473ffffffffffffffffffffffffffffffffffffffff1681565b600073ffffffffffffffffffffffffffffffffffffffff82169050919050565b6000609482606b565b9050919050565b60a281608b565b82525050565b600060208201905060bb6000830184609b565b9291505056fea26469706673582212203069dc2451b81167f9d460664ee5cf879398557a87f14f5407537921b1226f7f64736f6c634300080e0033",
  "immutableReferences": {},
  "source": "/**\r\n *Submitted for verification at Etherscan.io on 2022-04-30\r\n*/\r\n\r\n// SPDX-License-Identifier: Unlicensed\r\n\r\npragma solidity ^0.8.0;\r\n\r\ncontract Ownable {\r\n    address public owner;\r\n\r\n    modifier onlyOwner() {\r\n        require(msg.sender == owner, \"Only owner call this function\");\r\n        _;\r\n    }\r\n}\r\n\r\ncontract Pausable is Ownable {\r\n    event Pause();\r\n    event Unpause();\r\n\r\n    bool public paused = false;\r\n\r\n    modifier whenNotPaused() {\r\n        require(!paused, \"Contract is paused right now\");\r\n        _;\r\n    }\r\n\r\n    modifier whenPaused() {\r\n        require(paused, \"Contract is not paused right now\");\r\n        _;\r\n    }\r\n\r\n    function pause() onlyOwner whenNotPaused public {\r\n        paused = true;\r\n        emit Pause();\r\n    }\r\n\r\n    function unpause() onlyOwner whenPaused public {\r\n        paused = false;\r\n        emit Unpause();\r\n    }\r\n}\r\n\r\ninterface IERC20 {\r\n    function totalSupply() external view returns (uint256);\r\n    function balanceOf(address account) external view returns (uint256);\r\n    function allowance(address owner, address spender) external view returns (uint256);\r\n\r\n    function transfer(address recipient, uint256 amount) external returns (bool);\r\n    function approve(address spender, uint256 amount) external returns (bool);\r\n    function transferFrom(address sender, address recipient, uint256 amount) external returns (bool);\r\n\r\n    event Transfer(address indexed from, address indexed to, uint256 value);\r\n    event Approval(address indexed owner, address indexed spender, uint256 value);\r\n\r\n    event AddToWhiteList(address _address);\r\n    event RemovedFromWhiteList(address _address);\r\n    event OwnershipTransfer(address _address);\r\n}\r\n\r\ncontract KOKU is IERC20, Pausable {\r\n    string public constant name = \"KOKU\";\r\n    string public constant symbol = \"KOKU\";\r\n    uint256 public constant decimals = 18;\r\n    uint256 public constant supply = 1000000000 * (10**18);\r\n\r\n    mapping (address => uint256) balances;\r\n    mapping (address => mapping (address => uint256)) allowed;\r\n    mapping (address => bool) public isWhiteListed;\r\n\r\n    constructor(address _owner){\r\n        owner = _owner;\r\n        balances[owner] = supply;\r\n        emit Transfer(address(0), owner, supply);\r\n    }\r\n\r\n    function totalSupply() public override pure returns (uint256) {\r\n        return supply;\r\n    }\r\n\r\n    function balanceOf(address tokenOwner) public override view returns (uint256) {\r\n        return balances[tokenOwner];\r\n    }\r\n\r\n    function transfer(address receiver, uint256 numTokens) public override returns (bool) {\r\n        require(\r\n            receiver != address(0),\r\n            \"transfer to the zero-address\"\r\n        );\r\n        require(\r\n            numTokens <= balances[msg.sender],\r\n            \"transfer amount exceeds balance\"\r\n        );\r\n        if(paused)\r\n        {\r\n            require(\r\n                isWhiteListed[msg.sender],\r\n                \"sender not whitelist to transfer\"\r\n            );\r\n        }\r\n        balances[msg.sender] = balances[msg.sender] - numTokens;\r\n        balances[receiver] = balances[receiver] + numTokens;\r\n        emit Transfer(msg.sender, receiver, numTokens);\r\n        return true;\r\n    }\r\n\r\n    function transferFrom(address sender, address receiver, uint256 numTokens) public override returns (bool) {\r\n        require(\r\n            receiver != address(0),\r\n            \"transfer to the zero-address\"\r\n        );\r\n        require(\r\n            numTokens <= balances[sender],\r\n            \"transfer amount exceeds balance\"\r\n        );\r\n        require(\r\n            numTokens <= allowed[sender][msg.sender],\r\n            \"transfer amount exceeds allowed amount\"\r\n        );\r\n        if(paused)\r\n        {\r\n            require(\r\n                isWhiteListed[sender],\r\n                \"sender not whitelist to transfer\"\r\n            );\r\n        }\r\n\r\n        balances[sender] = balances[sender] - numTokens;\r\n        allowed[sender][msg.sender] = allowed[sender][msg.sender] - numTokens;\r\n        balances[receiver] = balances[receiver] + numTokens;\r\n\r\n        emit Transfer(sender, receiver, numTokens);\r\n        return true;\r\n    }\r\n\r\n    function approve(address spender, uint256 numTokens) public override returns (bool) {\r\n        require(\r\n            spender != address(0),\r\n            \"spender is the zero address\"\r\n        );\r\n        allowed[msg.sender][spender] = numTokens;\r\n        emit Approval(msg.sender, spender, numTokens);\r\n        return true;\r\n    }\r\n\r\n    function allowance(address owner, address spender) public override view returns (uint) {\r\n        return allowed[owner][spender];\r\n    }\r\n\r\n    function getWhiteListStatus(address _address) external view returns (bool) {\r\n        return isWhiteListed[_address];\r\n    }\r\n\r\n    function whiteListAddress(address _address) external onlyOwner{\r\n        isWhiteListed[_address] = true;\r\n        emit AddToWhiteList(_address);\r\n    }\r\n\r\n    function removeWhiteListAddress (address _address) external onlyOwner{\r\n        isWhiteListed[_address] = false;\r\n        emit RemovedFromWhiteList(_address);\r\n    }\r\n\r\n    function transferTokens(address tokenAddress, address to, uint256 amount) external onlyOwner {\r\n        IERC20(tokenAddress).transfer(to, amount);\r\n    }\r\n\r\n    function transferOwnership(address newOwner) public onlyOwner {\r\n        require(newOwner != address(0), \"New owner can't be zero-address\");\r\n        owner = newOwner;\r\n        emit OwnershipTransfer(newOwner);\r\n    }\r\n}",
  "sourcePath": "C:\\Users\\retyn\\Documents\\rust_projects\\contracts\\KOKU.sol",
  "compiler": {
    "name": "solc",
    "version": "0.8.14+commit.80d49f37.Emscripten.clang"
  },
  "schemaVersion": "3.4.7",
  "updatedAt": "2022-06-05T07:00:08.927Z",
  "devdoc": {
    "kind": "dev",
    "methods": {},
    "version": 1
  },
  "userdoc": {
    "kind": "user",
    "methods": {},
    "version": 1
  }
}