{
  "contractName": "Pausable",
  "abi": [
    {
      "anonymous": false,
      "inputs": [],
      "name": "Pause",
      "type": "event"
    },
    {
      "anonymous": false,
      "inputs": [],
      "name": "Unpause",
      "type": "event"
    },
    {
      "inputs": [],
      "name": "owner",
      "outputs": [
        {
          "internalType": "address",
          "name": "",
          "type": "address"
        }
      ],
      "stateMutability": "view",
      "type": "function"
    },
    {
      "inputs": [],
      "name": "paused",
      "outputs": [
        {
          "internalType": "bool",
          "name": "",
          "type": "bool"
        }
      ],
      "stateMutability": "view",
      "type": "function"
    },
    {
      "inputs": [],
      "name": "pause",
      "outputs": [],
      "stateMutability": "nonpayable",
      "type": "function"
    },
    {
      "inputs": [],
      "name": "unpause",
      "outputs": [],
      "stateMutability": "nonpayable",
      "type": "function"
    }
  ],
  "bytecode": "0x608060405260008060146101000a81548160ff02191690831515021790555034801561002a57600080fd5b506105418061003a6000396000f3fe608060405234801561001057600080fd5b506004361061004c5760003560e01c80633f4ba83a146100515780635c975abb1461005b5780638456cb59146100795780638da5cb5b14610083575b600080fd5b6100596100a1565b005b6100636101c6565b604051610070919061033f565b60405180910390f35b6100816101d9565b005b61008b610300565b604051610098919061039b565b60405180910390f35b60008054906101000a900473ffffffffffffffffffffffffffffffffffffffff1673ffffffffffffffffffffffffffffffffffffffff163373ffffffffffffffffffffffffffffffffffffffff161461012f576040517f08c379a000000000000000000000000000000000000000000000000000000000815260040161012690610413565b60405180910390fd5b600060149054906101000a900460ff1661017e576040517f08c379a00000000000000000000000000000000000000000000000000000000081526004016101759061047f565b60405180910390fd5b60008060146101000a81548160ff0219169083151502179055507f7805862f689e2f13df9f062ff482ad3ad112aca9e0847911ed832e158c525b3360405160405180910390a1565b600060149054906101000a900460ff1681565b60008054906101000a900473ffffffffffffffffffffffffffffffffffffffff1673ffffffffffffffffffffffffffffffffffffffff163373ffffffffffffffffffffffffffffffffffffffff1614610267576040517f08c379a000000000000000000000000000000000000000000000000000000000815260040161025e90610413565b60405180910390fd5b600060149054906101000a900460ff16156102b7576040517f08c379a00000000000000000000000000000000000000000000000000000000081526004016102ae906104eb565b60405180910390fd5b6001600060146101000a81548160ff0219169083151502179055507f6985a02210a168e66602d3235cb6db0e70f92b3ba4d376a33c0f3d9434bff62560405160405180910390a1565b60008054906101000a900473ffffffffffffffffffffffffffffffffffffffff1681565b60008115159050919050565b61033981610324565b82525050565b60006020820190506103546000830184610330565b92915050565b600073ffffffffffffffffffffffffffffffffffffffff82169050919050565b60006103858261035a565b9050919050565b6103958161037a565b82525050565b60006020820190506103b0600083018461038c565b92915050565b600082825260208201905092915050565b7f4f6e6c79206f776e65722063616c6c20746869732066756e6374696f6e000000600082015250565b60006103fd601d836103b6565b9150610408826103c7565b602082019050919050565b6000602082019050818103600083015261042c816103f0565b9050919050565b7f436f6e7472616374206973206e6f7420706175736564207269676874206e6f77600082015250565b60006104696020836103b6565b915061047482610433565b602082019050919050565b600060208201905081810360008301526104988161045c565b9050919050565b7f436f6e747261637420697320706175736564207269676874206e6f7700000000600082015250565b60006104d5601c836103b6565b91506104e08261049f565b602082019050919050565b60006020820190508181036000830152610504816104c8565b905091905056fea2646970667358221220d09b580c2d77122604620fbef404506419f8dd8ef552b662f5977f653122670964736f6c634300080e0033",
  "immutableReferences": {},
  "source": "/**\r\n *Submitted for verification at Etherscan.io on 2022-04-30\r\n*/\r\n\r\n// SPDX-License-Identifier: Unlicensed\r\n\r\npragma solidity ^0.8.0;\r\n\r\ncontract Ownable {\r\n    address public owner;\r\n\r\n    modifier onlyOwner() {\r\n        require(msg.sender == owner, \"Only owner call this function\");\r\n        _;\r\n    }\r\n}\r\n\r\ncontract Pausable is Ownable {\r\n    event Pause();\r\n    event Unpause();\r\n\r\n    bool public paused = false;\r\n\r\n    modifier whenNotPaused() {\r\n        require(!paused, \"Contract is paused right now\");\r\n        _;\r\n    }\r\n\r\n    modifier whenPaused() {\r\n        require(paused, \"Contract is not paused right now\");\r\n        _;\r\n    }\r\n\r\n    function pause() onlyOwner whenNotPaused public {\r\n        paused = true;\r\n        emit Pause();\r\n    }\r\n\r\n    function unpause() onlyOwner whenPaused public {\r\n        paused = false;\r\n        emit Unpause();\r\n    }\r\n}\r\n\r\ninterface IERC20 {\r\n    function totalSupply() external view returns (uint256);\r\n    function balanceOf(address account) external view returns (uint256);\r\n    function allowance(address owner, address spender) external view returns (uint256);\r\n\r\n    function transfer(address recipient, uint256 amount) external returns (bool);\r\n    function approve(address spender, uint256 amount) external returns (bool);\r\n    function transferFrom(address sender, address recipient, uint256 amount) external returns (bool);\r\n\r\n    event Transfer(address indexed from, address indexed to, uint256 value);\r\n    event Approval(address indexed owner, address indexed spender, uint256 value);\r\n\r\n    event AddToWhiteList(address _address);\r\n    event RemovedFromWhiteList(address _address);\r\n    event OwnershipTransfer(address _address);\r\n}\r\n\r\ncontract KOKU is IERC20, Pausable {\r\n    string public constant name = \"KOKU\";\r\n    string public constant symbol = \"KOKU\";\r\n    uint256 public constant decimals = 18;\r\n    uint256 public constant supply = 1000000000 * (10**18);\r\n\r\n    mapping (address => uint256) balances;\r\n    mapping (address => mapping (address => uint256)) allowed;\r\n    mapping (address => bool) public isWhiteListed;\r\n\r\n    constructor(address _owner){\r\n        owner = _owner;\r\n        balances[owner] = supply;\r\n        emit Transfer(address(0), owner, supply);\r\n    }\r\n\r\n    function totalSupply() public override pure returns (uint256) {\r\n        return supply;\r\n    }\r\n\r\n    function balanceOf(address tokenOwner) public override view returns (uint256) {\r\n        return balances[tokenOwner];\r\n    }\r\n\r\n    function transfer(address receiver, uint256 numTokens) public override returns (bool) {\r\n        require(\r\n            receiver != address(0),\r\n            \"transfer to the zero-address\"\r\n        );\r\n        require(\r\n            numTokens <= balances[msg.sender],\r\n            \"transfer amount exceeds balance\"\r\n        );\r\n        if(paused)\r\n        {\r\n            require(\r\n                isWhiteListed[msg.sender],\r\n                \"sender not whitelist to transfer\"\r\n            );\r\n        }\r\n        balances[msg.sender] = balances[msg.sender] - numTokens;\r\n        balances[receiver] = balances[receiver] + numTokens;\r\n        emit Transfer(msg.sender, receiver, numTokens);\r\n        return true;\r\n    }\r\n\r\n    function transferFrom(address sender, address receiver, uint256 numTokens) public override returns (bool) {\r\n        require(\r\n            receiver != address(0),\r\n            \"transfer to the zero-address\"\r\n        );\r\n        require(\r\n            numTokens <= balances[sender],\r\n            \"transfer amount exceeds balance\"\r\n        );\r\n        require(\r\n            numTokens <= allowed[sender][msg.sender],\r\n            \"transfer amount exceeds allowed amount\"\r\n        );\r\n        if(paused)\r\n        {\r\n            require(\r\n                isWhiteListed[sender],\r\n                \"sender not whitelist to transfer\"\r\n            );\r\n        }\r\n\r\n        balances[sender] = balances[sender] - numTokens;\r\n        allowed[sender][msg.sender] = allowed[sender][msg.sender] - numTokens;\r\n        balances[receiver] = balances[receiver] + numTokens;\r\n\r\n        emit Transfer(sender, receiver, numTokens);\r\n        return true;\r\n    }\r\n\r\n    function approve(address spender, uint256 numTokens) public override returns (bool) {\r\n        require(\r\n            spender != address(0),\r\n            \"spender is the zero address\"\r\n        );\r\n        allowed[msg.sender][spender] = numTokens;\r\n        emit Approval(msg.sender, spender, numTokens);\r\n        return true;\r\n    }\r\n\r\n    function allowance(address owner, address spender) public override view returns (uint) {\r\n        return allowed[owner][spender];\r\n    }\r\n\r\n    function getWhiteListStatus(address _address) external view returns (bool) {\r\n        return isWhiteListed[_address];\r\n    }\r\n\r\n    function whiteListAddress(address _address) external onlyOwner{\r\n        isWhiteListed[_address] = true;\r\n        emit AddToWhiteList(_address);\r\n    }\r\n\r\n    function removeWhiteListAddress (address _address) external onlyOwner{\r\n        isWhiteListed[_address] = false;\r\n        emit RemovedFromWhiteList(_address);\r\n    }\r\n\r\n    function transferTokens(address tokenAddress, address to, uint256 amount) external onlyOwner {\r\n        IERC20(tokenAddress).transfer(to, amount);\r\n    }\r\n\r\n    function transferOwnership(address newOwner) public onlyOwner {\r\n        require(newOwner != address(0), \"New owner can't be zero-address\");\r\n        owner = newOwner;\r\n        emit OwnershipTransfer(newOwner);\r\n    }\r\n}",
  "sourcePath": "C:\\Users\\retyn\\Documents\\rust_projects\\contracts\\KOKU.sol",
  "compiler": {
    "name": "solc",
    "version": "0.8.14+commit.80d49f37.Emscripten.clang"
  },
  "schemaVersion": "3.4.7",
  "updatedAt": "2022-06-05T07:00:08.934Z",
  "devdoc": {
    "kind": "dev",
    "methods": {},
    "version": 1
  },
  "userdoc": {
    "kind": "user",
    "methods": {},
    "version": 1
  }
}